:020000040800F2
:10000000180A0020A1010008AD0700081905000822
:10001000B105000863040008650C0008000000003A
:10002000000000000000000000000000F9070008C8
:10003000A104000800000000D9070008FD0700081F
:10004000BB010008BB010008BB010008BB010008A0
:10005000BB010008BB010008BB010008BB01000890
:10006000BB010008BB010008BB010008BB01000880
:10007000BB010008BB010008BB010008BB01000870
:10008000BB010008BB010008BB010008BB01000860
:1000900069040008BB010008BB010008BB0100089F
:1000A000BB010008910A0008750A0008BB0100089E
:1000B000AD0A0008C50A0008BB010008BB01000822
:1000C000BB010008BB010008BB010008BB01000820
:1000D000BB010008BB010008BB010008BB01000810
:1000E000BB010008BB010008BB010008350B00087C
:1000F000510B0008BB010008BB010008BB01000850
:10010000BB010008BB010008E10A0008BB010008B0
:10011000BB010008BB010008FD0A0008190B00081C
:10012000BB010008BB010008BB010008BB010008BF
:10013000BB010008BB010008BB010008BB010008AF
:10014000BB010008BB010008BB010008BB0100089F
:10015000BB010008BB010008BB010008BB0100088F
:10016000BB010008BB010008BB010008BB0100087F
:10017000BB010008BB010008BB0100080000000033
:10018000BB010008BB010008DFF810D000F048F9FF
:1001900000480047F52A0008AFF30080180A002045
:1001A0000648804706480047FEE7FEE7FEE7FEE711
:1001B000FEE7FEE7FEE7FEE7FEE7FEE715080008BC
:1001C0008901000840EA01039B0703D009E008C940
:1001D000121F08C0042AFAD203E011F8013B00F80C
:1001E000013B521EF9D270472DE9F04D81EA03041C
:1001F00004F0004B21F0004514464FF0000A23F0B4
:10020000004150EA050220D054EA01021DD0C5F396
:100210000A570246C5F31303C1F31300C1F30A568C
:1002200040F4801543F48013A7EB0608101BD64654
:1002300008F2FD3873EB050002D308F1010801E074
:1002400092185B41B8F1000F03DA00200146BDE8C7
:10025000F08D00204FF48011064684460EE0171BF7
:1002600073EB050705D3121B63EB050306434CEA4A
:10027000010C49084FEA300092185B4150EA01072F
:10028000EDD152EA030012D082EA040083EA0501AC
:10029000084305D0101BAB4106D20122002306E023
:1002A00000224FF0004302E06FF0010253101AEBFE
:1002B00006004CEB085110EB0A0041EB0B01BDE8C6
:1002C000F04D00F050B80EB5C10F80EAE070084460
:1002D000CA07002140F233438DE80E000A460B4660
:1002E00000F050F803B000BDC1F30A5210B5C1F3DD
:1002F000130140F2FF3341F480119A4201DA0020E9
:1003000010BD40F233439A42A2F2334203DC524220
:1003100000F019F810BD904010BD30B50B460146F5
:1003200000202022012409E021FA02F59D4205D394
:1003300003FA02F5491B04FA02F52844151EA2F13E
:100340000102F1DC30BD202A04DB203A21FA02F060
:100350000021704721FA02F3D040C2F120029140FF
:1003600008431946704710B5141E73F1000408DAEB
:10037000401C41F1000192185B411A4301D120F069
:10038000010010BD2DE9F04D92469B4611B1B1FA26
:1003900081F202E0B0FA80F22032904600F052F88A
:1003A00004460F4640EA0A0041EA0B0153465A460A
:1003B000084313D0114653EA010019D0C8F1400296
:1003C0005046FFF7C0FF05460E4650465946424686
:1003D00000F038F8084305D0012004E020463946F3
:1003E000BDE8F08D0020054346EAE0762C43374314
:1003F0000A986305E40AA0EB08000022FD0A44EA1B
:1004000047540A3002D500200146E9E701051019DA
:100410006941DDE9084500196941BDE8F04DA2E7F1
:10042000064C074D06E0E06840F0010394E8070041
:1004300098471034AC42F6D3FFF7AAFE44390008BF
:1004400064390008202A04DB203A00FA02F1002077
:1004500070479140C2F1200320FA03F31943904002
:10046000704700BFFEE7000000B585B04CF2810187
:10047000094802F089F968B16A460021064802F08D
:10048000BDF968460549096888474CF28101024870
:1004900002F071F905B000BD006400400C000020BE
:1004A000704700000146012901D112487047022916
:1004B00001D11148FAE7032901D11048F6E70429D0
:1004C00001D10F48F2E7052901D10E48EEE70629D0
:1004D00001D10D48EAE7072901D10C48E6E70829D0
:1004E00001D10B48E2E7092901D10A48DEE70020E3
:1004F000DCE70000380400206C040020A004002089
:10050000D4040020080500203C05002070050020D0
:10051000A4050020D805002000BFFEE72DE9F0412A
:100520002DED048B06460F4615464FF000080024BB
:100530003846FFF7B7FF044624B90020BDEC048B12
:10054000BDE8F081012E16D1206928442061206980
:10055000FFF7B9FE41EC190B53EC192B9FED120B71
:1005600051EC100BFFF740FE41EC180BFFF7BCFEFF
:100570004FEA500815E02069401B20612069FFF711
:10058000A2FE41EC190B53EC192B9FED070B51EC1C
:10059000100BFFF729FE41EC180BFFF7A5FE4FEA01
:1005A00050084046CAE700000000000080842E4149
:1005B00000BFFEE730B595B004460D4628221C4921
:1005C0000BA8FFF7FFFD28221949283101A8FFF7E2
:1005D000F9FD1CB94FF0FF3015B030BD0DB1092D3C
:1005E00002DD4FF0FF30F7E70BA951F8250000219D
:1005F00002F03DFD01AA52F825100BAA52F8250081
:1006000002F0B5FF01AA52F825100BAA52F82500F6
:1006100002F0B1FF0020E0706062E0622062606181
:10062000A061A081E0616081206100BFD4E700008B
:100630005C38000810B540F6064002F069FB4FF444
:10064000007300220121054802F00CFA4FF40073F8
:1006500002220021014802F02CFA10BD00180240CD
:1006600010B540F6064002F053FB4FF40053002251
:100670000121054802F0F6F94FF40053022200214F
:10068000014802F016FA10BD0018024010B540F6FD
:10069000014002F03DFB102300220121044802F03A
:1006A000E1F9102302220021014802F002FA10BDF4
:1006B0000004024010B540F6044002F029FB10236C
:1006C00000220121044802F0CDF91023022200216A
:1006D000014802F0EEF910BD0010024010B540F6DE
:1006E000054002F015FB042300220121044802F01A
:1006F000B9F9042302220021014802F0DAF910BD01
:100700000014024010B540F6054002F001FB202322
:1007100000220121044802F0A5F920230222002131
:10072000014802F0C6F910BD0014024010B540F6B1
:10073000044002F0EDFA4FF4005300220121054875
:1007400002F090F94FF4005302220021014802F018
:10075000B0F910BD0010024010B540F6054002F09F
:10076000D7FA4FF4007300220121054802F07AF90C
:100770004FF4007302220021014802F09AF910BDE3
:100780000014024010B54FF4406002F0C1FA022399
:1007900000220121044802F065F902231A460021D3
:1007A000014802F086F910BD0000024070470000C9
:1007B00010B5002807DA0A07140E054A00F00F03E7
:1007C0001B1FD45403E00A07130E024A135410BD32
:1007D00018ED00E000E400E0704701464868401C66
:1007E0008A68B0FBF2F302FB13000A68904201D161
:1007F000012070470020FCE77047000010B502F0B0
:10080000D9F803480068401C0149086010BD000089
:100810003400002008B53048006840F470002E49CC
:1008200008602E48006840F001002C49086000BFB5
:100830002A48006800F002000028F9D000BF2748CD
:100840000830006840F0800024490831086000202A
:10085000009002E00098401C009000985028F9D3C6
:100860001E480830006840F090001C4908310860BC
:100870000020009002E00098401C00900098502852
:10088000F9D300BF15480830006820F00300134971
:100890000831086011480068114908400F49086094
:1008A0000846006820F48020086000200B490831C9
:1008B000086000BF09480830006800200028F9D10E
:1008C00008480649091D0860002004490C310860E9
:1008D00002F09CFB08BD000088ED00E000380240FB
:1008E000FFFFF6FE1030002410B54FF4005106480B
:1008F00002F0B1F80549072002F052FA0348418995
:10090000034802F0B4FB10BD001002407005002047
:100910000048014010B54FF40071064802F09BF802
:100920000549082002F03CFA03484189034802F0D7
:100930009EFB10BD00140240A405002000180040DA
:1009400010B50221064802F086F80649092002F097
:1009500027FA04484189044802F089FB10BD0000D1
:1009600000000240D8050020001C004010B54FF4E4
:100970000071074802F06FF80649012002F010FAF2
:10098000044841894FF0804002F071FB10BD000027
:10099000001802403804002010B54FF400510648FA
:1009A00002F059F80549022002F0FAF9034841899A
:1009B000034802F05CFB10BD001802406C040020EC
:1009C0000004004010B51021064802F044F8064922
:1009D000032002F0E5F904484189044802F047FB8E
:1009E00010BD000000040240A0040020000C0040E4
:1009F00010B51021064802F02EF80649042002F036
:100A0000CFF904484189044802F031FB10BD0000D1
:100A100000100240D40400200010004010B5042152
:100A2000064802F018F80649052002F0B9F9044812
:100A30004189044802F01BFB10BD00000014024075
:100A4000080500200014004010B52021064802F0DF
:100A500002F80649062002F0A3F904484189044837
:100A600002F005FB10BD0000001402403C05002010
:100A70000044014010B50121034802F07CFD034809
:100A80000068804710BD0000004801402800002099
:100A900010B50121034802F06EFD0348006880474D
:100AA00010BD0000004401402400002010B50121C9
:100AB000880702F060FD02480068804710BD000012
:100AC0001000002010B50121034802F054FD034836
:100AD0000068804710BD00000004004014000020A2
:100AE00010B50121034802F046FD03480068804725
:100AF00010BD0000000C00401800002010B50121BE
:100B0000034802F038FD03480068804710BD00002C
:100B1000001000401C00002010B50121034802F025
:100B20002AFD03480068804710BD00000014004003
:100B30002000002010B50121034802F01CFD0348ED
:100B40000068804710BD0000001800402C00002005
:100B500010B50121034802F00EFD034800688047EC
:100B600010BD0000001C00403000002010B540F611
:100B7000014002F0CDF8402300220221234801F079
:100B800071FF802300220221204801F06BFF4FF407
:100B90008073002202211D4801F064FF4FF40073AE
:100BA00000220221194801F05DFF402302220021AA
:100BB000164801F07EFF802302220021134801F035
:100BC00078FF4FF4807302220021104801F071FF7A
:100BD0004FF40073022200210C4801F06AFF40220A
:100BE00002210A4801F004FF80220221074801F097
:100BF000FFFE4FF480720221044801F0F9FE4FF429
:100C000000720221014801F0F3FE10BD0004024011
:100C100010B540F6044002F07BF8202300220221A8
:100C20000F4801F01FFF4023002202210C4801F071
:100C300019FF202302220021094801F03AFF402336
:100C400002220021064801F034FF2022032104483B
:100C500001F0CEFE40220321014801F0C9FE10BD83
:100C60000010024000BFFEE70FB4054B10B503A90A
:100C7000044A029800F018F810BC5DF814FB00005C
:100C8000CD2900083C00002002E008C8121F08C15E
:100C9000002AFAD170477047002001E001C1121FFD
:100CA000002AFBD1704700002DE9FF4F89B09B4619
:100CB0000446002506E025280BD05A460B9990479C
:100CC000641C6D1C20780028F5D10DB02846BDE8C5
:100CD000F08F0027B8460122474900E0074314F887
:100CE000013F203B02FA03F00842F7D120782E287A
:100CF00019D114F8010F47F004072A280ED06FF01D
:100D00002F022078A0F1300109290CD808EB8801C6
:100D100002EB410100EB0108641CF2E70A98641C35
:100D200050F8048B0A9020780028CED0642808D090
:100D3000692806D075281ED05A460B9990476D1C1D
:100D400058E00A994FF00A0901C90A91002802DA0D
:100D500040422D2102E0390504D52B218DF82010C9
:100D6000012103E0F90704D02021F7E78A4608AE05
:100D70000DE00021FAE70A994FF00A0901C90A912A
:100D8000F7E74946FFF7C9FA303106F8011D002898
:100D9000F7D1ADEB060000F12009780701D44FF040
:100DA0000108C84502DDA8EB090000E000208046EC
:100DB000002706E008A85A46C05D0B9990476D1CB5
:100DC0007F1C5745F6DB04E030205A460B999047CC
:100DD0006D1CB8F10001A8F10108F5DC05E016F87A
:100DE000010B5A460B9990476D1CB9F10001A9F10E
:100DF0000109F4DC641C65E70928010070B50446AC
:100E00000D4604B115B94FF0FF3070BD2046FFF715
:100E1000E4FC08B10020F8E7626802EB8202E168B6
:100E200001EB820014222946FFF7CCF96068401CD0
:100E3000A168B0FBF1F201FB120060600120E4E761
:100E400010B5044604B910BD21460248FFF7D6FF8D
:100E500000BFF8E74000002010B501F001F9044898
:100E60000449086032220449044800F009F810BD22
:100E7000410E00080C00002050000020400000201F
:100E80000023036043608260C160704770B5002436
:100E9000002500F0FBFF01F081F800BF0DE0611CB0
:100EA000C8B2FFF7FFFA054605B970BDE988621CB4
:100EB000D0B200F0A1F9601CC4B2062CEFDB002117
:100EC000084600F015FA0121002000F04BFA042139
:100ED000002000F081FA00BFE7E710B500240720EA
:100EE000FFF7E0FA044604B910BD01F09DF98F2127
:100EF000042000F028F80421052000F024F8112136
:100F00000C2000F020F8A1790D2000F01CF8217AC7
:100F10000E2000F018F8A0210F2000F014F8122184
:100F2000102000F010F80121312000F00CF82021F1
:100F3000322000F008F8012000F030F8002000F026
:100F40001BF800BFD0E770B504460D46002645EA01
:100F50000426304601F0B2F970BD10B501F086F8F4
:100F600000F002FB00F06AFB00F0E8FA00F092FDEE
:100F700000F028FC10BD000070B5044600250CB13F
:100F8000012000E0002005462A464FF48051024827
:100F900001F063FD002070BD0010024070B50446F2
:100FA00000250CB1012000E0002005460DB901200C
:100FB00000E0002002464FF40061024801F04DFDC0
:100FC000002070BD0010024010B51B481B4908608E
:100FD0001B481C4908601C481C4908601C481D49E6
:100FE00008601D481D4908601D481E4908601E48CC
:100FF0001E4908601E481F4908601F481F490860B5
:1010000000F016FE00F048FE00F078FE00F0A8FEAA
:1010100000F0D8FE00F008FF00F074FD00F0A4FD21
:1010200000F0D4FD00F02CFAFFF730FFFFF755FF7A
:1010300000F026F810BD00006D0900081000002027
:101040009909000814000020C509000818000020B4
:10105000F10900081C0000201D0A000820000020E3
:10106000490A000824000020E908000828000020A0
:10107000150900082C00002041090008300000205C
:1010800070B50024002501F005F8012411E0E11DF0
:10109000C8B2FFF707FA054605B970BD2889E98887
:1010A00040EA811082B24021204600F01AF8601C0C
:1010B000C4B2022CEBDD4FF4A2620021012000F04B
:1010C00010F84FF4A2620021022000F00AF800217B
:1010D000084600F051F80121002000F06DF800BF33
:1010E000DBE72DE9F04106460C4615460027B846D9
:1010F00045EA04273946304601F02CF88046404640
:10110000BDE8F08170B504460E4600250CB1092CEF
:1011100002DD4FF0FF3070BD2046FFF7C3F90546F2
:1011200015B94FF0FF30F6E7EE80062C04DC3146AF
:10113000204600F061F81DE0072C04D1F1B20D202B
:10114000FFF701FF16E0082C09D12889E98840EA59
:10115000811082B240210120FFF7C3FF0AE0092C71
:1011600008D12889E98840EA811082B24021022012
:10117000FFF7B7FF0020CEE770B504460D46002606
:101180000DB1012000E0002006460CB1012C05D174
:1011900032464FF48071064801F05FFC0CB1022C1E
:1011A00004D132460421034801F057FC002070BDF1
:1011B000001402400008024070B504460D460026A7
:1011C0000DB1012000E0002006460CB1012C04D135
:1011D00032468021064801F040FC0CB1022C04D1BB
:1011E00032460221034801F038FC002070BD0000A7
:1011F0000014024000080240F0B52DED028B83B0D0
:1012000004460E4600259FED320AB0EE408A0027C4
:10121000304903C9CDE90101062C03DC40F6C410B6
:10122000864205DD4FF0FF3003B0BDEC028BF0BD10
:1012300000EE106AB8EE400ADFED270A20EE200A21
:10124000B0EE408A9FED250A68EE000A9FED241A51
:1012500080EE810ADFED230A80EE201ABCEEC10A7F
:1012600010EE100A87B2002C0ADD042C08DC601E88
:1012700001AA32F810103A461B4802F01EF825E089
:10128000042C0ADD062C08DC601F01AA32F81010BD
:101290003A46164802F011F818E0BCB9002513E0F0
:1012A000032D08DD281F01AA32F810103A460F4816
:1012B00002F003F806E001A830F815103A460A4893
:1012C00001F0FBFF681CC5B2062DE9DB0020ABE78F
:1012D000000000003C3900080000A54400007A45E9
:1012E00000404E4500007A440008004000400140A4
:1012F000F0B58DB004460E46002500271822184987
:1013000007A8FEF75FFF18221549183101A8FEF75C
:1013100059FF062C02DD681E0DB0F0BD0EB1012094
:1013200000E0002007464CB1621E01AB53F82210CA
:1013300007AB53F822003A4601F08FFB74B9002541
:101340000AE001AA52F8251007AA52F825003A46E9
:1013500001F083FB681CC5B2062DF2DB0120DBE740
:10136000AC380008F0B58DB004460E4600250027C5
:101370001822184907A8FEF725FF18221549183129
:1013800001A8FEF71FFF062C02DD681E0DB0F0BDA0
:101390000EB1012000E0002007464CB1621E01ABF7
:1013A00053F8221007AB53F822003A4601F055FBE0
:1013B00074B900250AE001AA52F8251007AA52F8CC
:1013C00025003A4601F049FB681CC5B2062DF2DB48
:1013D0000120DBE7DC3800082DE9F04104460D462A
:1013E0000026002734B1012C04D0022C02D0701E3C
:1013F000BDE8F08135B1022D07D0042D08D0082DAD
:101400000CD108E0002600270BE00126002708E0A9
:101410000026012705E00126012702E04FF0FF30FA
:10142000E6E700BF012C00D08CB90EB9012000E026
:10143000002002460421114801F00FFB0FB90120E2
:1014400000E00020024608210C4801F006FB022CB7
:1014500000D08CB90EB9012000E000200246102116
:10146000064801F0FAFA0FB9012000E00020024618
:101470002021024801F0F1FA0120B9E7000C0240F6
:10148000F0B58DB000244FF4FA654FF4487600278C
:1014900000200A900B900C9014221E4905A8FEF71C
:1014A00091FEADF81450ADF81650ADF81850ADF8E7
:1014B0001A50ADF81C50ADF81E50142215491431C5
:1014C0006846FEF77FFEADF80060ADF80260ADF84B
:1014D0000460ADF80660ADF80860ADF80A6000BFC2
:1014E00013E0611CC8B2FEF7DDFF07460FB90DB06F
:1014F000F0BD0AA8005D387005A830F814003881E6
:101500003DF81400F880601CC4B2092CE9DB00BF70
:10151000EDE70000E437000810B504460548006810
:10152000A04206D30121044801F095FA00200149A8
:10153000086010BD340000200010024010B540F6D5
:10154000024001F0E5FB4FF400630022114605481C
:1015500001F088FA4FF4805300221146014801F04F
:1015600081FA10BD0008024010B540F6064001F0B7
:10157000CFFB40F6044001F0CBFB40F6054001F004
:10158000C7FB012300221946294801F06BFA022308
:1015900000220121264801F065FA80230022012162
:1015A000244801F05FFA4FF48073002201212148A2
:1015B00001F058FA4FF40073002201211D4801F098
:1015C00051FA4FF40043002201211B4801F04AFA6E
:1015D000012302220021164801F06BFA02231A4669
:1015E0000021134801F065FA8023022200211148EE
:1015F00001F05FFA4FF48073022200210D4801F0E0
:1016000058FA4FF40073022200210A4801F051FAFF
:101610004FF4004302220021074801F04AFA4FF438
:10162000804300221146044801F01CFA10BD00005E
:1016300000180240001002400014024010B54FF4A0
:10164000406001F065FB40F6014001F061FB40F6AF
:10165000024001F05DFB40F6034001F059FB40F60B
:10166000064001F055FB41F20E1001F051FB4FF422
:101670008063002211464E4801F0F4F94FF4004314
:10168000002211464B4801F0EDF94FF4807300221F
:101690001146484801F0E6F94FF400730022114664
:1016A000434801F0DFF94FF48073002211464048AF
:1016B00001F0D8F94FF48073002211463E4801F042
:1016C000D1F9402300221146394801F0CBF980239B
:1016D00000221146364801F0C5F940230022114688
:1016E000354801F0BFF9802300221146324801F04D
:1016F000B9F94FF4004300221146304801F0B2F925
:101700004FF48043002211462C4801F0ABF94FF40E
:10171000005300221146294801F0A4F94FF48053E8
:1017200000221146254801F09DF94FF40063002284
:101730001146224801F096F94FF4806300221146C9
:101740001E4801F08FF94FF40073002211461B4828
:1017500001F088F94FF4807300221146174801F018
:1017600081F9202300221146134801F07BF9102350
:1017700000221146104801F075F908230022114695
:101780000D4801F06FF90423002211460A4801F0C8
:1017900069F94FF4006300221146094801F062F92B
:1017A0004FF4806300221146054801F05BF910BD3B
:1017B000000802400000024000180240000C0240F5
:1017C0000004024010B540F6054001F0A1FA40F6D1
:1017D000024001F09DFA40F6034001F099FA40F60C
:1017E000064001F095FA40F6044001F091FA40F607
:1017F000014001F08DFA4023002201219F4801F0B1
:1018000031F94023022200219C4801F052F94FF4A3
:101810000063002201219A4801F024F94FF400638B
:1018200002220021964801F044F94FF400430022BF
:101830000121934801F016F94FF4004302220021E0
:101840008F4801F036F90423002201218D4801F070
:1018500009F90423022200218A4801F02AF9012310
:1018600000221946884801F0FDF8012302220021D8
:10187000854801F01EF9082300220121824801F069
:10188000F1F80823022200217F4801F012F94FF4F9
:101890000063002201217B4801F0E4F84FF400636B
:1018A00002220021774801F004F98023002201215F
:1018B000754801F0D7F8802302220021724801F018
:1018C000F8F8022300220121704801F0CBF802232E
:1018D0001A4600216D4801F0ECF880230022012116
:1018E000664801F0BFF8802302220021634801F01E
:1018F000E0F84FF4805300220121614801F0B2F872
:101900004FF48053022200215D4801F0D2F80823F1
:10191000002201215E4801F0A5F8082302220021DF
:101920005B4801F0C6F8082300220121554801F068
:1019300099F8082302220021524801F0BAF8022344
:1019400000220121504801F08DF802231A4600219F
:101950004D4801F0AEF81023002201214A4801F061
:1019600081F8102302220021474801F0A2F84FF429
:10197000805300220121434801F074F84FF4805352
:10198000022200213F4801F094F84FF480730022B6
:1019900001213D4801F066F84FF4807302220021D6
:1019A000394801F086F8042300220121374801F06C
:1019B00059F8042302220021344801F07AF84FF448
:1019C0008063002211462E4801F04CF84FF480430A
:1019D000002211462A4801F045F820230022114632
:1019E0002B4801F03FF84FF40053002211462748DE
:1019F00001F038F84FF4804300221146234801F0EB
:101A000031F84FF4004300221146204801F02AF833
:101A10004FF48063002211461A4801F023F84FF476
:101A2000806300221146184801F01CF808230022A8
:101A30001146164801F016F84023002201211248F1
:101A400001F010F84023022200210F4801F031F884
:101A50000123002219460D4801F004F80123022257
:101A600000210A4801F025F84021074800F0F1FF65
:101A70000121064800F0EDFF10BD0000000C0240FF
:101A8000001802400010024000140240000802400A
:101A90000004024010B540F6034001F039F9042378
:101AA00000220121164800F0DDFF08230022012159
:101AB000134800F0D7FF102300220121104800F046
:101AC000D1FF2023002201210D4800F0CBFF042389
:101AD000022200210A4800F0ECFF08230222002124
:101AE000074800F0E6FF102302220021044800F01E
:101AF000E0FF202302220021014800F0DAFF10BDA0
:101B0000000C02401FB541F2121001F001F94FF034
:101B1000807001F033F9134801F024FD114801F001
:101B20000DFCFEF703FEA720ADF800000020ADF885
:101B30000200ADF804000290ADF806008DF80C002C
:101B40006946084801F0C2FC064801F08BFA012101
:101B5000044801F010FD002211461A2000F0DAFFBF
:101B60001FBD0000004801401FB541F2060001F012
:101B7000CFF84FF0807001F001F9134801F0F2FC4A
:101B8000114801F0DBFBFEF7E7FDA720ADF80000F0
:101B90000020ADF80200ADF804000290ADF8060098
:101BA0008DF80C006946084801F090FC064801F0E9
:101BB00059FA0121044801F0DEFC002211462B20D5
:101BC00000F0A8FF1FBD0000001800401FB541F243
:101BD000070001F09DF84FF0807001F0CFF8134836
:101BE00001F0C0FC114801F0A9FBFEF7CBFDA720D6
:101BF000ADF800000020ADF80200ADF8040002903E
:101C0000ADF806008DF80C006946084801F05EFC4E
:101C1000064801F027FA0121044801F0ACFC00223B
:101C200011462C2000F076FF1FBD0000001C004074
:101C30001FB54FF4805001F06BF84FF0807001F049
:101C40009DF84FF0804001F08DFC4FF0804001F096
:101C500075FBFEF7EFFCA720ADF800000020ADF803
:101C60000200ADF804000290ADF806008DF80C00FB
:101C700069464FF0804001F029FC4FF0804001F0B0
:101C8000F1F90121880701F076FC002211461C20A1
:101C900000F040FF1FBD00001FB541F2010001F040
:101CA00037F84FF0807001F069F8134801F05AFCE2
:101CB000114801F043FBFEF7D3FCA720ADF800006C
:101CC0000020ADF80200ADF804000290ADF8060067
:101CD0008DF80C006946084801F0F8FB064801F051
:101CE000C1F90121044801F046FC002211461D20E3
:101CF00000F010FF1FBD0000000400401FB541F2BE
:101D0000030001F005F84FF0807001F037F8134838
:101D100001F028FC114801F011FBFEF7B7FCA720E9
:101D2000ADF800000020ADF80200ADF8040002900C
:101D3000ADF806008DF80C006946084801F0C6FBB6
:101D4000064801F08FF90121044801F014FC00223B
:101D50001146322000F0DEFE1FBD0000000C0040E6
:101D60001FB541F2040000F0D3FF4FF0807001F086
:101D700005F8134801F0F6FB114801F0DFFAFEF711
:101D800099FCA720ADF800000020ADF80200ADF8E6
:101D900004000290ADF806008DF80C006946084872
:101DA00001F094FB064801F05DF90121044801F0BF
:101DB000E2FB00221146362000F0ACFE1FBD000001
:101DC000001000401FB541F2050000F0A1FF4FF0E8
:101DD000807000F0D3FF134801F0C4FB114801F0FC
:101DE000ADFAFEF77BFCA720ADF800000020ADF8AF
:101DF0000200ADF804000290ADF806008DF80C006A
:101E00006946084801F062FB064801F02BF9012100
:101E1000044801F0B0FB00221146372000F07AFEA2
:101E20001FBD0000001400401FB541F2111000F06A
:101E30006FFF4FF0807000F0A1FF134801F092FB9C
:101E4000114801F07BFAFEF75DFCA720ADF8000019
:101E50000020ADF80200ADF804000290ADF80600D5
:101E60008DF80C006946084801F030FB064801F087
:101E7000F9F80121044801F07EFB002211461920E7
:101E800000F048FE1FBD00000044014000B587B0CF
:101E900041F2020000F03CFF4FF0807000F06EFF56
:101EA0003D4801F04BFAFEF761FE0020ADF800005E
:101EB000ADF80200ADF8040040F69F7002900020DB
:101EC000ADF806008DF80C006946334801F0FEFAC3
:101ED0000120ADF810000020ADF81200ADF814009C
:101EE000ADF81600ADF81800ADF81A0004AA0021EC
:101EF000294801F0BFF804AA0121274801F0BAF8E7
:101F000004AA0221244801F0B5F804AA03212248BA
:101F100001F0B0F8002211461F4801F0CEF960220E
:101F200000211D4801F09CF9002211461A4801F0D9
:101F3000D7F900220121184801F0BFF960220121E0
:101F4000154801F08DF900220121134801F0C8F96C
:101F500000220221104801F0B0F9602202210E484F
:101F600001F07EF9002202210B4801F0B9F90022AC
:101F70000321094801F0A1F960220321064801F07C
:101F80006FF900220321044801F0AAF9024801F088
:101F900097FA07B000BD00000008004000B587B008
:101FA00041F2101000F0B4FE4FF0807000F0E6FE39
:101FB0002A4801F0C3F9FEF72BFE0020ADF800001F
:101FC000ADF80200ADF804004FF47A6002904FF4CF
:101FD0008070ADF8060000208DF80C0069461F489F
:101FE00001F074FA0120ADF810000020ADF81200E5
:101FF000ADF81400ADF81600ADF81800ADF81A00F1
:1020000004AA0021154801F035F804AA012113485B
:1020100001F030F800221146104801F04EF960221C
:1020200000210E4801F01CF9002211460B4801F076
:1020300057F900220121094801F03FF960220121EE
:10204000064801F00DF900220121044801F048F989
:10205000024801F035FA07B000BD00000040014021
:1020600010B500F0BFFA00F0BBF910BD10B540F696
:10207000044000F04DFE012300221946044800F000
:10208000F1FC012302220021014800F012FD10BDE5
:102090000010024000B587B04FF4406000F038FEF9
:1020A00040F6014000F034FE41F20C1000F030FE2A
:1020B000E0220521244800F09BFCE02300220221BD
:1020C000214800F0CFFCE023022200211E4800F04E
:1020D000F0FC1023002201211B4800F0C3FC102358
:1020E00002220021184800F0E4FC012300221946D6
:1020F000164800F0B7FC012302220021134800F02B
:10210000D8FC1021104800F0A4FC01210F4800F079
:10211000A0FC002001904FF4827000904FF400600A
:102120000290032005904FF4007003902820069041
:10213000002004906946064800F0CBFE044800F0F9
:10214000B5FE07B000BD00000000024000040240E0
:10215000003001402DE9F04105460E461F240027BE
:1021600046F48056012D2AD110212C4800F06FFC36
:1021700000BF02212A4800F0A4FE0028F9D0314611
:10218000274800F09CFE00BF0121254800F099FE81
:102190000028F9D0224800F08EFE074600BF201E1E
:1021A000A4F101018CB2FAD110211C4800F051FCBD
:1021B00000BF201EA4F101018CB2FAD12BE0022D48
:1021C00029D10121174800F042FC00BF0221144828
:1021D00000F077FE0028F9D03146114800F06FFE7C
:1021E00000BF01210E4800F06CFE0028F9D00C4819
:1021F00000F061FE074600BF201EA4F101018CB271
:10220000FAD10121074800F024FC00BF201EA4F1F0
:1022100001018CB2FAD13846BDE8F08100000240DD
:10222000003001400004024000B587B040F6014094
:1022300000F06EFD41F20E0000F06AFD4FF46042C6
:1022400005211C4800F0D4FB4FF46043002202211A
:10225000184800F007FC4FF46043022200211548A3
:1022600000F027FC4FF4805300220121114800F0B8
:10227000F9FB4FF48053022200210E4800F019FCB4
:10228000002001904FF4827000904FF400600290A3
:102290000120059040020390202006900020049029
:1022A0006946054800F015FE034800F0FFFD07B041
:1022B00000BD0000000402400038004070B5044634
:1022C00000254BF6FF7004404FF48051124800F097
:1022D000BEFB012000F064FB00BF02210F4800F0AC
:1022E000F0FD0028F9D021460C4800F0E8FD00BFC1
:1022F00001210A4800F0E5FD0028F9D0074800F068
:10230000DAFD05464FF48051034800F0A2FB01209E
:1023100000F046FB284670BD000402400038004033
:1023200010B54FF4406000F0F3FC41F2041000F0EF
:10233000EFFC4FF400720721264800F059FB4FF4E0
:1023400080620721234800F053FB4FF40073012201
:102350000221204800F086FB4FF400730222002186
:102360001C4800F0A6FB4FF48063012202211948AB
:1023700000F078FB4FF4806302220021154800F042
:1023800098FB154801F07CF914480168124801F0E7
:10239000F5F80821104801F01DFA01210E4801F05E
:1023A00009FA00210C4801F0F5F900210A4801F072
:1023B00059F90021084801F0E5F90421064801F027
:1023C000F1F90821044801F0FDF9034801F0C6F9CC
:1023D00010BD000000000240001001400800002075
:1023E00000B589B006A9002000F087FA01A90120F4
:1023F00000F083FA264800F04DF800208DF81C000C
:1024000001208DF81D0000208DF81E0001208DF8A0
:102410001F0000208DF820008DF821008DF8180095
:102420008DF819000E208DF81A0004208DF81B007D
:102430000220ADF8220006A9154800F007F9002097
:10244000ADF80E000120ADF81000ADF812004FF409
:10245000DE40ADF804000020ADF806004FF4DE4089
:10246000ADF808000020ADF80A00ADF80C0001201E
:102470008DF8140001A800F02DF800221146142058
:1024800000F048FB0221024800F071F909B000BDDC
:102490000064004010B504460A48844208D140F662
:1024A000190000F059FC40F6190000F043FC07E069
:1024B00040F61A0000F050FC40F61A0000F03AFC1A
:1024C00010BD000000640040014600208A69C2F38C
:1024D0000210704710B50021837A012202FA03F13D
:1024E0003E4A126842F001023C4B1A603B4A1C32E1
:1024F00012688A43394B1C331A60C289DAB9374AE9
:102500000C3212688A43354B0C331A60C288344B44
:1025100003EA024243881A434389304C403444F86A
:10252000332082882E4B03EA024203881A434389F0
:1025300004EBC3035A60C289012A1BD1274A0C321B
:1025400012680A43254B0C331A600288244B03EAB5
:10255000024243881A434389204C403444F83320D4
:1025600082881F4B03EA0242C3881A43438904EB63
:10257000C3035A6082893AB9184A121D12688A4305
:10258000164B1B1D1A6006E0144A121D12680A43FE
:10259000124B1B1D1A6002893AB9104A1432126894
:1025A0008A430E4B14331A6006E00C4A1432126848
:1025B0000A430A4B14331A60027C012A06D1074AE7
:1025C0001C3212680A43054B1C331A60034A126816
:1025D00022F00102014B1A6010BD000000660040AD
:1025E0000000FFFF10B541F2190000F091FB4FF41D
:1025F000406000F08DFB4FF400630222002112487E
:1026000000F057FA4FF40063002202210E4800F058
:1026100029FA4FF4006209210B4800F0E9F94FF460
:10262000805302220021084800F043FA4FF48053FF
:1026300000220221044800F015FA4FF480520921CB
:10264000014800F0D5F910BD0000024070B5024607
:102650004FF6FF730020146824F00204146014681D
:1026600044F00104146000E05B1E546804F00104AF
:102670000CB9002BF8D1546804F001040CB9002007
:1026800074E00C784FF0404505EA84744D784FF0C3
:10269000407606EA05652C438D784FF4702606EAED
:1026A00005452C43CD784FF4E00606EA05552C434A
:1026B0004D896D1EC5F309052C43D4610C79012C9D
:1026C00004D1146844F08004146003E0146824F01A
:1026D000800414604C79012C04D1146844F0400447
:1026E000146003E0146824F0400414608C79012C19
:1026F00004D1146844F02004146003E0146824F04A
:1027000020041460CC79012C04D1146824F0100446
:10271000146003E0146844F0100414600C7A012C77
:1027200004D1146824F00804146003E0146844F031
:10273000080414604C7A012C04D1146844F0040499
:10274000146003E0146824F004041460146824F096
:10275000010414604FF6FF7300E05B1E546804F040
:1027600001040CB1002BF8D103B1012070BD426906
:102770000A4342617047C1F3841301229A4000EB7F
:1027800011331A6070470000F0B505460C4600266C
:1027900000274CF28100844205D10021284600F038
:1027A0009FF8064619E01348844205D101212846C6
:1027B00000F096F8064610E00F48844204D12846FF
:1027C000FFF782FE064608E005EB14300068C4F30C
:1027D00084120121914000EA0106686904F01F0299
:1027E0000121914000EA010716B10FB10120F0BDAF
:1027F0000020FCE784000100CB80010010B500F54B
:10280000D87303EB01131B6803F004031372137AEC
:102810003BB900F5D87303EB01131B685B0D136024
:1028200006E000F5D87303EB01131B68DB08536067
:1028300000F5D87303EB01131B6803F00203537216
:1028400000F5DA7303EB01131B681B0AD37400F560
:10285000DA7303EB01131B6803F00F03937200F5A7
:10286000DC7303EB01131B68D37200F5DC7303EB1D
:1028700001131B681C0A147300F5DC7303EB0113CE
:102880001B681C0C547300F5DC7303EB01131B680D
:102890001C0E947300F5DE7303EB01131B68D373F6
:1028A00000F5DE7303EB01131B681C0A147400F5BA
:1028B000DE7303EB01131B681C0C547400F5DE730C
:1028C00003EB01131B681C0E947421B9C36843F019
:1028D0002003C36003E0036943F02003036110BDDC
:1028E0000246002019B9D36803F0030004E001296F
:1028F00002D1136903F00300704710B5024609B90D
:1029000000BFFEE732B1012A16D0022A20D0032AE6
:1029100041D12EE000234B71CB718B7140F2FF331C
:102920004B8100230B724B7002238B700023CB7002
:102930000B714B720B7030E00123CB8100230B74C1
:102940000B810B804B808B80CB808B814B8124E073
:10295000002005E0002401F10B031C54431CD8B2F5
:102960000828F7D300238B724B600B724B720B60FD
:1029700013E0002005E0002401F10B031C54431C6C
:10298000D8B20828F7D300238B724B600B72CB743C
:102990004B720B6001E000BFFEE700BF10BD0000FE
:1029A0000349086000BF024909680029FBD170474C
:1029B000040000200448006820B103480068401E5D
:1029C00001490860704700000400002070B504460B
:1029D0000D46E1B2054800F04FFE00BF0721034855
:1029E00000F0C1FE0028F9D0204670BD0010014063
:1029F000F0B503461C6A5D6A00200DE001268640A2
:102A000016403EB187000F26BE40B443860001FA4F
:102A100006F63443461CB0B20828EFD3082011E074
:102A20000126864016405EB1A0F10806B7000F26C9
:102A3000BE40B543A0F10806B60001FA06F63543DC
:102A4000461CB0B21028EBD31C625D62F0BD8162FF
:102A5000704781617047C16270470AB1816100E0CF
:102A600081627047F0B504460D4616462168E2685B
:102A7000002019E0012787401F409FB14FEA400C1A
:102A8000032707FA0CF7B943470005FA07F739435C
:102A90004FEA400C032707FA0CF7BA43470006FA3F
:102AA00007F73A43471CB8B21028E3D32160E2602D
:102AB000F0BDF0B50C461546012C03D146681E4307
:102AC000466002E046689E434660826800210DE051
:102AD00001268E401E403EB14F000326BE40B24349
:102AE0004E0005FA06F632434E1CB1B21029EFD360
:102AF0008260F0BD00F08EFAFFF712FCFEF72DFAAF
:102B0000FEF7AAF9FEF760FA03E04FF4FA70FEF759
:102B100003FDFAE72DE9F04103460D461646002471
:102B20000027A0462A48006800F4E060B0F5E06F96
:102B300003D100BF4FF0040830E02548006800F4DE
:102B4000E060B0F5C06F03D101274FF0030825E026
:102B50001F48006800F4E060B0F5A06F02D10227C2
:102B6000B8461BE01A48006800F4E060B0F5806FDA
:102B700003D103274FF0010810E01548006800F466
:102B8000E060B0F5407F03D104274FF0000805E076
:102B90004FF4A06000F020F80227B846C7F1040007
:102BA00005FA00F4C8F104010F20C8403040044386
:102BB00024010848C45403F01F0101208840591122
:102BC000890001F1E021C1F80001BDE8F0810000B9
:102BD0000CED00E000E400E002490143024A11600C
:102BE000704700000000FA050CED00E02DE9F04F01
:102BF0008CB0064600200A903EA090E8004CC068C9
:102C0000CDE905BECDF810A007900FF2EC0ADAE985
:102C1000000ACDE9020A0FF2E00ADAE9000ACDE97A
:102C2000000A38480068C0F381000B900B9820B16F
:102C3000012804D0022828D103E0334927E0334992
:102C400025E03048001F006800F03F072D48001FB6
:102C50000068C0F3881C2B48001F0068C0F30140C7
:102C6000401C4FEA40092748001F006800F4800814
:102C7000B8F5800F01D1254B00E0234BB3FBF7F0F3
:102C800000FB0CF0B0FBF9F101E01F4900BF00BFF1
:102C90001C480068C0F3031404A8055D21FA05F27E
:102CA00018480068C0F3822402A8055D22FA05F0E6
:102CB000099014480068C0F342341DF8045022FA09
:102CC00005F0089036B1012E06D0022E06D0032E54
:102CD0000AD106E00A9108E00A9206E009980A90F3
:102CE00003E008980A9000E000BF00BF0A980CB00B
:102CF000BDE8F08F000000000000000001020304A6
:102D000006070809083802400024F40000127A007F
:102D1000074A02EB9011D1F8001800F01F030122BE
:102D20009A401143024B03EB9012C2F8001870470F
:102D300000300240074A02EB9011D1F8001800F071
:102D40001F0301229A409143024B03EB9012C2F8F9
:102D50000018704700300240074A02EB9011D1F88A
:102D6000001800F01F0301229A401143024B03EBAD
:102D70009012C2F800187047003002406FF0807166
:102D8000884205D1054909680140044A116004E000
:102D9000024909680143014A116070478C380240BA
:102DA00070B505460C466078401C6070607802285B
:102DB00074D100206070E06A401CE062E078012875
:102DC00004D0022841D0032867D12BE02179A06AE2
:102DD00011B94FF0FF3100E001210844A0622946FB
:102DE0000120226AFDF79AFB60816089E1698842CF
:102DF00004DC0320E070A08B608109E02849098889
:102E0000E06A884204D1A078012801D10320E07053
:102E10006169E06A884204D3A078012801D10220C8
:102E2000E0703AE02179A06A11B94FF0FF3100E07B
:102E300001210844A0626169E06A884204D3A07855
:102E4000012801D10220E07027E02179A06A11B9A0
:102E50004FF0FF3100E001210844A0626089B0F525
:102E60007A7F05DC29460020226AFDF757FB608146
:102E7000D4E90B1088420FD829462046FDF79AFB6B
:102E8000062D03DCE1882846FEF73CF905A0A16A7F
:102E9000FDF7EAFE0020E07000BF00BF70BD00003B
:102EA000380000202564200A00000000016841F07D
:102EB0004001016070470146C86880B27047C16038
:102EC000704702469068084008B101207047002012
:102ED000FCE702460020106800F441500B681843DC
:102EE0004B6818438B681843CB6818430B69184329
:102EF0004B6918438B6918431060D36923F400634E
:102F0000D361704700203E49096841F480313C4A52
:102F1000116000BF3A49096801F4003129B901463E
:102F2000401C4FF6FF729142F4D13549096801F413
:102F3000003131B900BF3249096801F4003100297C
:102F4000F9D02F494031096841F080512C4A403274
:102F500011602C49096841F440412A4A116028490E
:102F600008310968264A083211601146096841F49F
:102F7000004111601146096841F4A05111602249D5
:102F8000121F1160111F096841F08071121F11603A
:102F900000BF1B49096801F000710029F9D01949E7
:102FA000096841F48031174A116000BF154949682A
:102FB00001F480310029F9D01249096841F4003147
:102FC000104A116000BF0F49496801F4003100291F
:102FD000F9D00B490831096821F00301084A083289
:102FE00011601146096841F00201116000BF0449F7
:102FF0000831096801F008010029F8D07047000085
:1030000000380240007000400854400710B5FFF738
:1030100079FF10BD10B5124800684FF47A71B0FB0B
:10302000F1F4601EB0F1807F01D301200FE0601E3B
:103030004FF0E02148610F214FF0FF30FDF7B8FB62
:1030400000204FF0E021886107200861002008B1CE
:1030500000BFFEE711214FF0FF30FDF7A9FB10BDC7
:1030600000000020016841F0800101607047C162EA
:103070007047000010B531B101293FD002297DD041
:1030800003297CD1BFE0036A23F001030362836953
:1030900023F003038361036A148823430362036AF2
:1030A00023F002030362036A9488234303626A4B9A
:1030B000984202D0694B98421FD1036A23F004035F
:1030C0000362036A548823430362036A23F00803FC
:1030D0000362036AD48823430362436823F4807342
:1030E00043604368148923434360436823F40073B7
:1030F00043604368548923434360ABE0036A23F091
:1031000010030362836923F440738361036A1488A4
:1031100043EA04130362036A23F020030362036A91
:10312000948843EA041303624B4B984202D04B4B02
:10313000984226D1036A23F040030362036A54884D
:1031400043EA04130362036A23F080030362036A01
:10315000D48843EA04130362436823F48063436022
:103160004368148943EA84034360436823F400639B
:1031700043604368548943EA840301E002E068E065
:10318000436067E0036A23F480730362C36923F03A
:103190000303C361036A148843EA04230362036AD6
:1031A00023F400730362036A948843EA04230362EE
:1031B000294B984202D0294B984223D1036A23F429
:1031C00080630362036A548843EA04230362036A48
:1031D00023F400630362036AD48843EA042303628E
:1031E000436823F4805343604368148943EA04131B
:1031F0004360436823F4005343604368548943EABF
:103200000413436026E0036A23F480530362C36916
:1032100023F44073C361036A148843EA04330362EE
:10322000036A23F400530362036A948843EA043375
:103230000362094B984202D0084B984208D1436878
:1032400023F4804343604368148943EA8413436052
:1032500000E000BF00BF10BD0000014000040140BD
:1032600031B101290CD0022913D0032922D118E051
:10327000836923F0700383618369134383611AE0D8
:10328000836923F4E0438361836943EA0223836112
:1032900011E0C36923F07003C361C3691343C361C1
:1032A00009E0C36923F4E043C361C36943EA02232D
:1032B000C36100E000BF00BF704731B1012906D0F3
:1032C000022906D0032908D105E0426306E08263A3
:1032D00004E0C26302E0026400E000BF00BF704788
:1032E00031B101290CD0022913D0032922D118E0D1
:1032F000836923F0080383618369134383611AE0C0
:10330000836923F400638361836943EA0223836151
:1033100011E0C36923F00803C361C3691343C361A8
:1033200009E0C36923F40063C361C36943EA02236C
:10333000C36100E000BF00BF7047000010B5044645
:103340005C49601A8C426FD019DC5B49A4EB010028
:103350008C424ED009DCB4F1804F2ED05748204427
:10336000A0B3B0F5806F72D13AE0B0F5806F49D06C
:10337000B0F5006F4FD0B0F5406FF4D17BE0B0F501
:10338000923F5BD009DCB0F5806F73D0B0F5644F2D
:103390000AD0B0F5684F5AD147E0B0F5943F57D006
:1033A000B0F5963F53D15CE04FF41060FFF7D4FCCA
:1033B0004FF41060FFF7BEFC79E04FF40060FFF7B8
:1033C000CBFC4FF40060FFF7B5FC70E0FFE740F680
:1033D0000100FFF7C1FC40F60100FFF7ABFC66E01F
:1033E00040F60200FFF7B8FC40F60200FFF7A2FC2F
:1033F0005DE040F60300FFF7AFFC40F60300FFF787
:1034000099FC54E040F60400FFF7A6FC40F60400E7
:10341000FFF790FC4BE040F60500FFF79DFC40F6FF
:103420000500FFF787FC42E02EE040F60110FFF7B1
:1034300093FC40F60110FFF77DFC38E04FF411607B
:10344000FFF78AFC4FF41160FFF774FC2FE02DE0CA
:1034500040F61110FFF780FC40F61110FFF76AFCF0
:1034600025E040F61210FFF777FC40F61210FFF748
:1034700061FC1CE011E040F60600FFF76DFC40F631
:103480000600FFF757FC12E040F60700FFF764FC68
:1034900040F60700FFF74EFC09E040F60800FFF792
:1034A0005BFC40F60800FFF745FC00E000BF00BFF2
:1034B00010BD0000001C0040000C004000FCFFBFDD
:1034C000016841F001010160704700000A888262D2
:1034D0001D4A90420ED0B0F1804F0BD01B4A904253
:1034E00008D01B4A904205D01A4A904202D01A4A8C
:1034F00090420BD1026822F07002026002684B8891
:103500001A43026002688B881A4302608A68C262AA
:10351000124A90420AD0124A904207D0026822F41E
:10352000407202600268CB881A430260064A9042E9
:1035300002D0094A904201D10A7B0263426942F0FB
:103540000102426170470000000001400004004099
:1035500000080040000C0040000401400010004042
:1035600000140040816821F0070181607047C26843
:103570008A43C2607047CA43026170472DE9F04731
:1035800004460D460027B846B94600263349601A5E
:103590008C4235D00CDC32482044E8B1B0F5806F65
:1035A0001FD0B0F5006F21D0B0F5406F32D122E0CE
:1035B000B0F5806F29D0B0F5184F03D0B0F51C4F8F
:1035C00028D104E00320FFF711FB074623E0032086
:1035D000FFF70CFB07461EE00220FFF707FB07463C
:1035E00019E00220FFF702FB074614E00220FFF774
:1035F000FDFA07460FE00220FFF7F8FA07460AE057
:103600000220FFF7F3FA074605E00220FFF7EEFA83
:10361000074600E000BF00BFE06800F4004070B162
:10362000780000EB5500B0FBF5F64FF6F07006EAB7
:103630000008C6F3420948EA0900A0600CE007EB65
:103640005500B0FBF5F64FF6F07006EA000806F0FC
:103650000F0948EA0900A060BDE8F0870078004043
:1036600000BCFFBF0A460021D0F8801021F40061A1
:103670001143C0F880107047C1F3080242607047E0
:1036800010B504463349601A8C424DD00CDC3248E8
:103690002044E0B1B0F5806F22D0B0F5006F31D09A
:1036A000B0F5406F52D136E0B0F5806F45D0B0F53F
:1036B000184F03D0B0F51C4F48D11AE040F6041063
:1036C000FFF74AFB40F60410FFF734FB3FE040F6FB
:1036D0001100FFF741FB40F61100FFF72BFB36E02E
:1036E00040F61200FFF738FB40F61200FFF722FB0E
:1036F0002DE040F60510FFF72FFB40F60510FFF711
:1037000019FB24E040F61300FFF726FB40F61300F8
:10371000FFF710FB1BE040F61400FFF71DFB40F61F
:103720001400FFF707FB12E040F61E00FFF714FB42
:1037300040F61E00FFF7FEFA09E040F61F00FFF713
:103740000BFB40F61F00FFF7F5FA00E000BF00BFDB
:1037500010BD00000078004000BCFFBFC16841F40C
:103760000051C160704710B5024602EB911000682D
:1037700001F01F040123A340184008B1012010BD2F
:103780000020FCE7C26822F40042C260C2680A431B
:10379000C2607047C26822F4C062C260C2680A4355
:1037A000C26070470A460021C16821F0040111433C
:1037B000C1607047026922F44052026102690A4303
:1037C000026170470A460021C16821F008011143D7
:1037D000C1607047C26822F48052C260C2680A4366
:1037E000C260704700000000000000000000000000
:1037F0009D001F001F0000000000000000000000EE
:103800000000000066000B000B000000000000003C
:103810000000004000040040000C00400010004088
:1038200000140040004401400048014000180040DE
:10383000001C00400000000001000000010000002A
:103840000100000001000000010000000100000074
:103850000100000001000000010000000000000065
:103860000000004000040040000C00400010004038
:10387000001400400044014000480140001800408E
:10388000001C0040000000000100000001000000DA
:103890000100000001000000010000000100000024
:1038A000010000000100000001000000000C0240C7
:1038B00000180240000402400010024000140240C0
:1038C000001402408000000000100000080000000A
:1038D000080000000200000010000000000C024080
:1038E000001802400018024000100240001402407C
:1038F00000140240400000000008000000800000AA
:103900000400000001000000080000000018024050
:103910000018024000040240000802400008024073
:1039200000080240000400000040000020000000E9
:1039300000200000004000000080000000000100A6
:10394000020003006439000800000020400000006D
:10395000880C0008A439000840000020D8090000A5
:10396000980C0008007A030A0000000000C2010061
:103970000000000000000000000000000000000047
:103980000000000000000000000000000000000037
:103990000000000000000000000000001E00000009
:0439A0000000000023
:040000050800018965
:00000001FF
